{
  "_format": "hh-sol-artifact-1",
  "contractName": "BlindPay",
  "sourceName": "contracts/BlindPay.sol",
  "abi": [
    {
      "inputs": [
        {
          "internalType": "address",
          "name": "_usdcToken",
          "type": "address"
        }
      ],
      "stateMutability": "nonpayable",
      "type": "constructor"
    },
    {
      "inputs": [
        {
          "internalType": "address",
          "name": "owner",
          "type": "address"
        }
      ],
      "name": "OwnableInvalidOwner",
      "type": "error"
    },
    {
      "inputs": [
        {
          "internalType": "address",
          "name": "account",
          "type": "address"
        }
      ],
      "name": "OwnableUnauthorizedAccount",
      "type": "error"
    },
    {
      "inputs": [],
      "name": "ReentrancyGuardReentrantCall",
      "type": "error"
    },
    {
      "inputs": [
        {
          "internalType": "address",
          "name": "token",
          "type": "address"
        }
      ],
      "name": "SafeERC20FailedOperation",
      "type": "error"
    },
    {
      "inputs": [
        {
          "internalType": "bytes32",
          "name": "handle",
          "type": "bytes32"
        },
        {
          "internalType": "address",
          "name": "sender",
          "type": "address"
        }
      ],
      "name": "SenderNotAllowedToUseHandle",
      "type": "error"
    },
    {
      "inputs": [],
      "name": "ZamaProtocolUnsupported",
      "type": "error"
    },
    {
      "anonymous": false,
      "inputs": [
        {
          "indexed": true,
          "internalType": "bytes32",
          "name": "salt",
          "type": "bytes32"
        }
      ],
      "name": "FundsClaimed",
      "type": "event"
    },
    {
      "anonymous": false,
      "inputs": [
        {
          "indexed": true,
          "internalType": "bytes32",
          "name": "salt",
          "type": "bytes32"
        }
      ],
      "name": "InvoiceCreated",
      "type": "event"
    },
    {
      "anonymous": false,
      "inputs": [
        {
          "indexed": true,
          "internalType": "address",
          "name": "previousOwner",
          "type": "address"
        },
        {
          "indexed": true,
          "internalType": "address",
          "name": "newOwner",
          "type": "address"
        }
      ],
      "name": "OwnershipTransferred",
      "type": "event"
    },
    {
      "anonymous": false,
      "inputs": [
        {
          "indexed": true,
          "internalType": "bytes32",
          "name": "salt",
          "type": "bytes32"
        },
        {
          "indexed": false,
          "internalType": "bytes32",
          "name": "receiptHash",
          "type": "bytes32"
        }
      ],
      "name": "PaymentMade",
      "type": "event"
    },
    {
      "inputs": [],
      "name": "TOKEN_ETH",
      "outputs": [
        {
          "internalType": "uint8",
          "name": "",
          "type": "uint8"
        }
      ],
      "stateMutability": "view",
      "type": "function"
    },
    {
      "inputs": [],
      "name": "TOKEN_USDC",
      "outputs": [
        {
          "internalType": "uint8",
          "name": "",
          "type": "uint8"
        }
      ],
      "stateMutability": "view",
      "type": "function"
    },
    {
      "inputs": [],
      "name": "TYPE_DONATION",
      "outputs": [
        {
          "internalType": "uint8",
          "name": "",
          "type": "uint8"
        }
      ],
      "stateMutability": "view",
      "type": "function"
    },
    {
      "inputs": [],
      "name": "TYPE_MULTIPAY",
      "outputs": [
        {
          "internalType": "uint8",
          "name": "",
          "type": "uint8"
        }
      ],
      "stateMutability": "view",
      "type": "function"
    },
    {
      "inputs": [],
      "name": "TYPE_STANDARD",
      "outputs": [
        {
          "internalType": "uint8",
          "name": "",
          "type": "uint8"
        }
      ],
      "stateMutability": "view",
      "type": "function"
    },
    {
      "inputs": [
        {
          "internalType": "bytes32",
          "name": "salt",
          "type": "bytes32"
        },
        {
          "internalType": "bytes32",
          "name": "claimSecret",
          "type": "bytes32"
        }
      ],
      "name": "claimFunds",
      "outputs": [],
      "stateMutability": "nonpayable",
      "type": "function"
    },
    {
      "inputs": [],
      "name": "confidentialProtocolId",
      "outputs": [
        {
          "internalType": "uint256",
          "name": "",
          "type": "uint256"
        }
      ],
      "stateMutability": "view",
      "type": "function"
    },
    {
      "inputs": [
        {
          "internalType": "externalEuint64",
          "name": "encAmount",
          "type": "bytes32"
        },
        {
          "internalType": "bytes",
          "name": "inputProofAmount",
          "type": "bytes"
        },
        {
          "internalType": "externalEaddress",
          "name": "encMerchantExt",
          "type": "bytes32"
        },
        {
          "internalType": "bytes",
          "name": "inputProofMerchant",
          "type": "bytes"
        },
        {
          "internalType": "bytes32",
          "name": "salt",
          "type": "bytes32"
        },
        {
          "internalType": "bytes32",
          "name": "claimHash",
          "type": "bytes32"
        },
        {
          "internalType": "uint8",
          "name": "invoiceType",
          "type": "uint8"
        },
        {
          "internalType": "uint8",
          "name": "tokenType",
          "type": "uint8"
        }
      ],
      "name": "createInvoice",
      "outputs": [],
      "stateMutability": "nonpayable",
      "type": "function"
    },
    {
      "inputs": [
        {
          "internalType": "bytes32",
          "name": "salt",
          "type": "bytes32"
        }
      ],
      "name": "getInvoice",
      "outputs": [
        {
          "internalType": "uint8",
          "name": "tokenType",
          "type": "uint8"
        },
        {
          "internalType": "uint8",
          "name": "invoiceType",
          "type": "uint8"
        },
        {
          "internalType": "uint256",
          "name": "paymentCount",
          "type": "uint256"
        },
        {
          "internalType": "bool",
          "name": "hasBeenCreated",
          "type": "bool"
        }
      ],
      "stateMutability": "view",
      "type": "function"
    },
    {
      "inputs": [
        {
          "internalType": "address",
          "name": "",
          "type": "address"
        }
      ],
      "name": "invoiceCount",
      "outputs": [
        {
          "internalType": "uint256",
          "name": "",
          "type": "uint256"
        }
      ],
      "stateMutability": "view",
      "type": "function"
    },
    {
      "inputs": [],
      "name": "owner",
      "outputs": [
        {
          "internalType": "address",
          "name": "",
          "type": "address"
        }
      ],
      "stateMutability": "view",
      "type": "function"
    },
    {
      "inputs": [
        {
          "internalType": "bytes32",
          "name": "salt",
          "type": "bytes32"
        },
        {
          "internalType": "externalEuint64",
          "name": "encPayAmount",
          "type": "bytes32"
        },
        {
          "internalType": "bytes",
          "name": "inputProof",
          "type": "bytes"
        },
        {
          "internalType": "uint256",
          "name": "usdcAmount",
          "type": "uint256"
        }
      ],
      "name": "payInvoice",
      "outputs": [],
      "stateMutability": "payable",
      "type": "function"
    },
    {
      "inputs": [
        {
          "internalType": "bytes32",
          "name": "",
          "type": "bytes32"
        }
      ],
      "name": "receiptExists",
      "outputs": [
        {
          "internalType": "bool",
          "name": "",
          "type": "bool"
        }
      ],
      "stateMutability": "view",
      "type": "function"
    },
    {
      "inputs": [],
      "name": "renounceOwnership",
      "outputs": [],
      "stateMutability": "nonpayable",
      "type": "function"
    },
    {
      "inputs": [
        {
          "internalType": "address",
          "name": "newOwner",
          "type": "address"
        }
      ],
      "name": "transferOwnership",
      "outputs": [],
      "stateMutability": "nonpayable",
      "type": "function"
    },
    {
      "inputs": [
        {
          "internalType": "address",
          "name": "_newUsdc",
          "type": "address"
        }
      ],
      "name": "updateUsdcToken",
      "outputs": [],
      "stateMutability": "nonpayable",
      "type": "function"
    },
    {
      "inputs": [],
      "name": "usdcToken",
      "outputs": [
        {
          "internalType": "contract IERC20",
          "name": "",
          "type": "address"
        }
      ],
      "stateMutability": "view",
      "type": "function"
    },
    {
      "inputs": [
        {
          "internalType": "bytes32",
          "name": "receiptHash",
          "type": "bytes32"
        }
      ],
      "name": "verifyReceipt",
      "outputs": [
        {
          "internalType": "bool",
          "name": "",
          "type": "bool"
        }
      ],
      "stateMutability": "view",
      "type": "function"
    },
    {
      "stateMutability": "payable",
      "type": "receive"
    }
  ],
  "bytecode": "0x608060405234801562000010575f80fd5b5060405162001a8838038062001a88833981016040819052620000339162000370565b33620000eb620000426200016f565b80517f9e7b61f58c47dc699ac88507c4f5bb9f121c03808c5676a8078fe583e464970080546001600160a01b03199081166001600160a01b039384161790915560208301517f9e7b61f58c47dc699ac88507c4f5bb9f121c03808c5676a8078fe583e46497018054831691841691909117905560408301517f9e7b61f58c47dc699ac88507c4f5bb9f121c03808c5676a8078fe583e46497028054909216921691909117905550565b6001600160a01b0381166200011957604051631e4fbdf760e01b81525f600482015260240160405180910390fd5b620001248162000321565b5060017f9b779b17422d0df92223018b32b4d1fa46e071723d6817e2486d003becc55f0055600180546001600160a01b0319166001600160a01b03929092169190911790556200039f565b604080516060810182525f80825260208201819052918101919091524660010362000209575060408051606080820183525f8083526020808401829052928401528251908101835273ca2e8f1f656cd25c01f05d0b243ab1ecd4a8ffb6815273d82385dada1ae3e969447f20a3164f6213100e75918101919091527377627828a55156b04ac0dc0eb30467f1a552bb039181019190915290565b4662aa36a70362000289575060408051606080820183525f8083526020808401829052928401528251908101835273f0ffdc93b7e186bc2f8cb3daa75d86d1930a433d81527392c920834ec8941d2c77d188936e1f7a6f49c1279181019190915273be0e383937d564d7ff0bc3b46c51f0bf8d5c311a9181019190915290565b46617a690362000308575060408051606080820183525f808352602080840182905292840152825190810183527350157cffd6bbfa2dece204a89ec419c23ef5755d815273e3a9105a3a932253a70f126eb1e3b589c643dd249181019190915273901f8942346f7ab3a01f6d7613119bca447bb0309181019190915290565b6040516373cac13b60e01b815260040160405180910390fd5b5f80546001600160a01b038381166001600160a01b0319831681178455604051919092169283917f8be0079c531659141344cd1fd0a4f28419497f9722a3daafe3b4186f6b6457e09190a35050565b5f6020828403121562000381575f80fd5b81516001600160a01b038116811462000398575f80fd5b9392505050565b6116db80620003ad5f395ff3fe608060405260043610610108575f3560e01c80638205b54611610092578063c6d9471d11610062578063c6d9471d146102aa578063cb802c8b146102c9578063d0de4bbc14610266578063f2fde38b1461033c578063f9d969c91461035b575f80fd5b80638205b5461461026657806385529382146102015780638927b0301461027a5780638da5cb5b1461028e575f80fd5b80633d91261c116100d85780633d91261c146101a25780634b7535d9146101c85780635c4fafc714610201578063715018a6146102145780638174794e14610228575f80fd5b80630798e5761461011357806311eac855146101345780632e15f0d0146101705780633269a9b614610183575f80fd5b3661010f57005b5f80fd5b34801561011e575f80fd5b5061013261012d366004611388565b610389565b005b34801561013f575f80fd5b50600154610153906001600160a01b031681565b6040516001600160a01b0390911681526020015b60405180910390f35b61013261017e3660046113fa565b610400565b34801561018e575f80fd5b5061013261019d366004611450565b61076c565b3480156101ad575f80fd5b506101b6600281565b60405160ff9091168152602001610167565b3480156101d3575f80fd5b506101f36101e2366004611388565b60066020525f908152604090205481565b604051908152602001610167565b34801561020c575f80fd5b506101b65f81565b34801561021f575f80fd5b506101326109b5565b348015610233575f80fd5b50610256610242366004611470565b5f9081526005602052604090205460ff1690565b6040519015158152602001610167565b348015610271575f80fd5b506101b6600181565b348015610285575f80fd5b506101f36109c8565b348015610299575f80fd5b505f546001600160a01b0316610153565b3480156102b5575f80fd5b506101326102c436600461149c565b6109d6565b3480156102d4575f80fd5b506103156102e3366004611470565b5f9081526002602052604090206001810154600482015460059092015460ff8084169461010090940416929091151590565b6040805160ff95861681529490931660208501529183015215156060820152608001610167565b348015610347575f80fd5b50610132610356366004611388565b610d01565b348015610366575f80fd5b50610256610375366004611470565b60056020525f908152604090205460ff1681565b610391610d3e565b6001600160a01b0381166103de5760405162461bcd60e51b815260206004820152600f60248201526e496e76616c6964206164647265737360881b60448201526064015b60405180910390fd5b600180546001600160a01b0319166001600160a01b0392909216919091179055565b610408610d6a565b5f858152600260205260409020600181015461045a5760405162461bcd60e51b8152602060048201526011602482015270125b9d9bda58d9481b9bdd08199bdd5b99607a1b60448201526064016103d5565b6004810154610100900460ff166001148061047757506005810154155b6104ba5760405162461bcd60e51b8152602060048201526014602482015273125b9d9bda58d948185b1c9958591e481c185a5960621b60448201526064016103d5565b5f6104fa8686868080601f0160208091040260200160405190810160405280939291908181526020018383808284375f92019190915250610d8592505050565b905061050581610df4565b50600582018054905f6105178361155f565b90915550506004820154610100900460ff1660011461054d575f61053b6001610e14565b905061054681610e2f565b5060038301555b5f61055733610e3e565b905061056281610e53565b506002830181905560058301546040515f91610595918b9142916020019283526020830191909152604082015260600190565b60408051601f1981840301815291815281516020928301205f81815260059093529120805460ff19166001179055600485015490915060ff16610639575f34116106115760405162461bcd60e51b815260206004820152600d60248201526c09aeae6e840e6cadcc8408aa89609b1b60448201526064016103d5565b5f898152600460205260408120805434929061062e908490611577565b909155506107119050565b34156106875760405162461bcd60e51b815260206004820181905260248201527f446f206e6f742073656e642045544820666f722055534443207061796d656e7460448201526064016103d5565b5f85116106d65760405162461bcd60e51b815260206004820152601760248201527f5553444320616d6f756e74206d757374206265203e203000000000000000000060448201526064016103d5565b6001546106ee906001600160a01b0316333088610e62565b5f898152600460205260408120805487929061070b908490611577565b90915550505b887fde50a5e15882c96c136e266943593957a310c815c14c111d03f9d109ea5f951f8260405161074391815260200190565b60405180910390a25050505061076560015f8051602061168683398151915255565b5050505050565b610774610d6a565b5f828152600360209081526040918290205491516bffffffffffffffffffffffff193360601b1691810191909152603481018490526054810183905260740160405160208183030381529060405280519060200120146108065760405162461bcd60e51b815260206004820152600d60248201526c496e76616c696420636c61696d60981b60448201526064016103d5565b5f828152600260205260409020600581015461085b5760405162461bcd60e51b81526020600482015260146024820152734e6f207061796d656e747320746f20636c61696d60601b60448201526064016103d5565b5f83815260046020526040902054806108aa5760405162461bcd60e51b81526020600482015260116024820152704e6f2066756e647320746f20636c61696d60781b60448201526064016103d5565b5f84815260046020819052604082209190915582015460ff16610958576040515f90339083908381818185875af1925050503d805f8114610906576040519150601f19603f3d011682016040523d82523d5f602084013e61090b565b606091505b50509050806109525760405162461bcd60e51b8152602060048201526013602482015272115512081d1c985b9cd9995c8819985a5b1959606a1b60448201526064016103d5565b5061096f565b60015461096f906001600160a01b03163383610e9e565b60405184907ff6b173aa025121331f2a0641d228f2e812ec4c20b500a5a7813d80cb24ed540b905f90a250506109b160015f8051602061168683398151915255565b5050565b6109bd610d3e565b6109c65f610ed8565b565b5f6109d1610f27565b905090565b5f84815260026020526040902060050154158015610a0257505f84815260026020526040902060010154155b610a425760405162461bcd60e51b815260206004820152601160248201527014d85b1d08185b1c9958591e481d5cd959607a1b60448201526064016103d5565b600160ff82161115610a8b5760405162461bcd60e51b8152602060048201526012602482015271496e76616c696420746f6b656e207479706560701b60448201526064016103d5565b600260ff83161115610ad65760405162461bcd60e51b8152602060048201526014602482015273496e76616c696420696e766f696365207479706560601b60448201526064016103d5565b5f610b168b8b8b8080601f0160208091040260200160405190810160405280939291908181526020018383808284375f92019190915250610d8592505050565b90505f610b588989898080601f0160208091040260200160405190810160405280939291908181526020018383808284375f92019190915250610f5b92505050565b9050610b6382610df4565b50610b6e8233610f82565b50610b7881610e53565b50610b838133610fa5565b505f610b8e5f610e14565b9050610b9981610e2f565b50610ba48133610fb4565b505f610baf5f610e3e565b9050610bba81610e53565b506040518060e001604052808481526020018581526020018281526020018381526020018660ff1681526020018760ff1681526020015f81525060025f8a81526020019081526020015f205f820151815f01556020820151816001015560408201518160020155606082015181600301556080820151816004015f6101000a81548160ff021916908360ff16021790555060a08201518160040160016101000a81548160ff021916908360ff16021790555060c082015181600501559050508660035f8a81526020019081526020015f208190555060065f336001600160a01b03166001600160a01b031681526020019081526020015f205f815480929190610cc29061155f565b909155505060405188907fab6994bba319b437692f1dbbe4d689382f25c4cfa9a291959e0af1ca5cd9e13f905f90a25050505050505050505050505050565b610d09610d3e565b6001600160a01b038116610d3257604051631e4fbdf760e01b81525f60048201526024016103d5565b610d3b81610ed8565b50565b5f546001600160a01b031633146109c65760405163118cdaa760e01b81523360048201526024016103d5565b610d72610fc3565b60025f8051602061168683398151915255565b5f81515f14610da157610d9a83836005610ff2565b9050610dee565b825f819003610dbb57610db35f6110ff565b915050610dee565b610dc58133611115565b610deb57604051630276b5d960e01b8152600481018290523360248201526044016103d5565b90505b92915050565b5f81610e0657610e035f6110ff565b91505b610e1082306111a1565b5090565b5f610dee82610e23575f610e26565b60015b60ff165f611217565b5f81610e0657610e035f610e14565b5f610dee826001600160a01b03166007611217565b5f81610e0657610e035f610e3e565b610e708484848460016112b9565b610e9857604051635274afe760e01b81526001600160a01b03851660048201526024016103d5565b50505050565b610eab8383836001611326565b610ed357604051635274afe760e01b81526001600160a01b03841660048201526024016103d5565b505050565b5f80546001600160a01b038381166001600160a01b0319831681178455604051919092169283917f8be0079c531659141344cd1fd0a4f28419497f9722a3daafe3b4186f6b6457e09190a35050565b5f46600103610f365750600190565b4662aa36a703610f47575061271190565b46617a6903610f5657505f1990565b505f90565b5f81515f14610f7057610d9a83836007610ff2565b825f819003610dbb57610db35f610e3e565b5f82610f9457610f915f6110ff565b92505b610f9e83836111a1565b5090919050565b5f82610f9457610f915f610e3e565b5f82610f9457610f915f610e14565b5f80516020611686833981519152546002036109c657604051633ee5aeb560e01b815260040160405180910390fd5b7f9e7b61f58c47dc699ac88507c4f5bb9f121c03808c5676a8078fe583e46497015460405163045fc19560e11b81525f915f80516020611666833981519152916001600160a01b03909116906308bf832a906110589088903390899089906004016115aa565b6020604051808303815f875af1158015611074573d5f803e3d5ffd5b505050506040513d601f19601f82011682018060405250810190611098919061161b565b8154604051630f8e573b60e21b8152600481018390523360248201529193506001600160a01b031690633e395cec906044015f604051808303815f87803b1580156110e1575f80fd5b505af11580156110f3573d5f803e3d5ffd5b50505050509392505050565b5f610dee8267ffffffffffffffff166005611217565b5f805f8051602061166683398151915280546040516382027b6d60e01b8152600481018790526001600160a01b0386811660248301529293509116906382027b6d90604401602060405180830381865afa158015611175573d5f803e3d5ffd5b505050506040513d601f19601f820116820180604052508101906111999190611632565b949350505050565b5f5f805160206116668339815191528054604051635ca4b5b160e11b8152600481018690526001600160a01b03858116602483015292935091169063b9496b62906044015f604051808303815f87803b1580156111fc575f80fd5b505af115801561120e573d5f803e3d5ffd5b50505050505050565b7f9e7b61f58c47dc699ac88507c4f5bb9f121c03808c5676a8078fe583e464970154604051639cd07acb60e01b81525f915f80516020611666833981519152916001600160a01b0390911690639cd07acb906112799087908790600401611651565b6020604051808303815f875af1158015611295573d5f803e3d5ffd5b505050506040513d601f19601f82011682018060405250810190611199919061161b565b6040516323b872dd60e01b5f8181526001600160a01b038781166004528616602452604485905291602083606481808c5af1925060015f51148316611315578383151615611309573d5f823e3d81fd5b5f883b113d1516831692505b604052505f60605295945050505050565b60405163a9059cbb60e01b5f8181526001600160a01b038616600452602485905291602083604481808b5af1925060015f5114831661137c578383151615611370573d5f823e3d81fd5b5f873b113d1516831692505b60405250949350505050565b5f60208284031215611398575f80fd5b81356001600160a01b03811681146113ae575f80fd5b9392505050565b5f8083601f8401126113c5575f80fd5b50813567ffffffffffffffff8111156113dc575f80fd5b6020830191508360208285010111156113f3575f80fd5b9250929050565b5f805f805f6080868803121561140e575f80fd5b8535945060208601359350604086013567ffffffffffffffff811115611432575f80fd5b61143e888289016113b5565b96999598509660600135949350505050565b5f8060408385031215611461575f80fd5b50508035926020909101359150565b5f60208284031215611480575f80fd5b5035919050565b803560ff81168114611497575f80fd5b919050565b5f805f805f805f805f806101008b8d0312156114b6575f80fd5b8a35995060208b013567ffffffffffffffff808211156114d4575f80fd5b6114e08e838f016113b5565b909b50995060408d0135985060608d01359150808211156114ff575f80fd5b5061150c8d828e016113b5565b90975095505060808b0135935060a08b0135925061152c60c08c01611487565b915061153a60e08c01611487565b90509295989b9194979a5092959850565b634e487b7160e01b5f52601160045260245ffd5b5f600182016115705761157061154b565b5060010190565b80820180821115610dee57610dee61154b565b605481106115a657634e487b7160e01b5f52602160045260245ffd5b9052565b8481525f602060018060a01b03861660208401526080604084015284518060808501525f5b818110156115eb5786810183015185820160a0015282016115cf565b505f60a0828601015260a0601f19601f83011685010192505050611612606083018461158a565b95945050505050565b5f6020828403121561162b575f80fd5b5051919050565b5f60208284031215611642575f80fd5b815180151581146113ae575f80fd5b828152604081016113ae602083018461158a56fe9e7b61f58c47dc699ac88507c4f5bb9f121c03808c5676a8078fe583e46497009b779b17422d0df92223018b32b4d1fa46e071723d6817e2486d003becc55f00a26469706673582212205dbbd15070de9f59360325916302aedcaeb9f9c205dbc783d993798da084e3fa64736f6c63430008180033",
  "linkReferences": {},
  "deployedLinkReferences": {}
}